08030065014002967000339000571000000000000000000000000000000000000000000000000000000000000000000000000BBB       QNDkDVwYopyG ZbSZJqQS bKB:                              Apples A. Pears                       Lafayette 2476                                         41 
08030088786006288000816000829000000000000000000000000000000000000000000000000000000000000000000000000BBB       QNDkDVwYopyG ZbSZJqQS bKB:                              Oranges Bananas                       New Castle 7191                                        45 
08030036488007792005632000821000000000000000000000000000000000000000000000000000000000000000000000000BBB       QNDkDVwYopyG ZbSZJqQS bKB:                              Oranges Bananas                       York 9096                                              01 
08030016941006526000380000279000000000000000000000000000000000000000000000000000000000000000000000000AAA       QNDkDVwYopyG ZbSZJqQS bKB:                              Apples A. Pears                       Warren 0248                                            61 
08030074916006865001162000950000000000000000000000000000000000000000000000000000000000000000000000000BBB       QNDkDVwYopyG ZbSZJqQS bKB:                              Oranges Bananas                       Lewis and Clark 0518                                   65 
08030056930004420002144000038000000000000000000000000000000000000000000000000000000000000000000000000BBB       QNDkDVwYopyG ZbSZJqQS bKB:                              Oranges Bananas                       Nicholas 0629                                          57 
08030034989002181008575000390000000000000000000000000000000000000000000000000000000000000000000000000AAA       QNDkDVwYopyG ZbSZJqQS bKB:                              Apples A. Pears                       Union 3271                                             65 
08030063008007862002418000463000000000000000000000000000000000000000000000000000000000000000000000000AAA       QNDkDVwYopyG ZbSZJqQS bKB:                              Oranges Bananas                       Bullock 9170                                           10 
08030017186005288004984000374000000000000000000000000000000000000000000000000000000000000000000000000BBB       QNDkDVwYopyG ZbSZJqQS bKB:                              Apples A. Pears                       Pender 8510                                            56 
08030038375008551006532000849000000000000000000000000000000000000000000000000000000000000000000000000AAA       QNDkDVwYopyG ZbSZJqQS bKB:                              Oranges Bananas                       Lawrence 5741                                          41 
08030085760005491001267000220000000000000000000000000000000000000000000000000000000000000000000000000AAA       QNDkDVwYopyG ZbSZJqQS bKB:                              Oranges Bananas                       Cass 2988                                              48 
08030035343004669009263000472000000000000000000000000000000000000000000000000000000000000000000000000BBB       QNDkDVwYopyG ZbSZJqQS bKB:                              Oranges Bananas                       Marion 3126                                            59 
08030037711006658008235000605000000000000000000000000000000000000000000000000000000000000000000000000AAA       QNDkDVwYopyG ZbSZJqQS bKB:                              Apples A. Pears                       Lowndes 0305                                           58 
08030021178007211001578000240000000000000000000000000000000000000000000000000000000000000000000000000AAA       QNDkDVwYopyG ZbSZJqQS bKB:                              Oranges Bananas                       Schoolcraft 1115                                       73 
08030074050007367004584000948000000000000000000000000000000000000000000000000000000000000000000000000BBB       QNDkDVwYopyG ZbSZJqQS bKB:                              Oranges Bananas                       Chenango 0519                                          44 
08030090639008460009608000738000000000000000000000000000000000000000000000000000000000000000000000000BBB       QNDkDVwYopyG ZbSZJqQS bKB:                              Oranges Bananas                       Prince George's 5328                                   77 
08030045403009768002854000775000000000000000000000000000000000000000000000000000000000000000000000000AAA       QNDkDVwYopyG ZbSZJqQS bKB:                              Oranges Bananas                       Clermont 6679                                          05 
08030052010007255006799000697000000000000000000000000000000000000000000000000000000000000000000000000BBB       QNDkDVwYopyG ZbSZJqQS bKB:                              Oranges Bananas                       Darke 3179                                             01 
08030097248002152006474000104000000000000000000000000000000000000000000000000000000000000000000000000AAA       QNDkDVwYopyG ZbSZJqQS bKB:                              Oranges Bananas                       Ripley 9184                                            86 
08030099316000673003065000440000000000000000000000000000000000000000000000000000000000000000000000000AAA       QNDkDVwYopyG ZbSZJqQS bKB:                              Apples A. Pears                       Henry 6791                                             90 
08030081543005632003035000211000000000000000000000000000000000000000000000000000000000000000000000000AAA       QNDkDVwYopyG ZbSZJqQS bKB:                              Oranges Bananas                       Clearwater 0523                                        60 
08030026251006917006307000178000000000000000000000000000000000000000000000000000000000000000000000000BBB       QNDkDVwYopyG ZbSZJqQS bKB:                              Oranges Bananas                       Lexington 7671                                         58 
08030019298005060005292000933000000000000000000000000000000000000000000000000000000000000000000000000AAA       QNDkDVwYopyG ZbSZJqQS bKB:                              Apples A. Pears                       Parke 2440                                             37 
08030095800000074004221000077000000000000000000000000000000000000000000000000000000000000000000000000AAA       QNDkDVwYopyG ZbSZJqQS bKB:                              Oranges Bananas                       Bleckley 7303                                          69 
08030077582002756001918000595000000000000000000000000000000000000000000000000000000000000000000000000BBB       QNDkDVwYopyG ZbSZJqQS bKB:                              Apples A. Pears                       Bolivar 9365                                           65 
08030074964001068004983000103000000000000000000000000000000000000000000000000000000000000000000000000AAA       QNDkDVwYopyG ZbSZJqQS bKB:                              Oranges Bananas                       Otter Tail 2224                                        41 
08030081176001711002774000367000000000000000000000000000000000000000000000000000000000000000000000000AAA       QNDkDVwYopyG ZbSZJqQS bKB:                              Apples A. Pears                       Pemiscot 2450                                          15 
08030026406009872002213000829000000000000000000000000000000000000000000000000000000000000000000000000AAA       QNDkDVwYopyG ZbSZJqQS bKB:                              Apples A. Pears                       Licking 4962                                           63 
08030087150002957007154000845000000000000000000000000000000000000000000000000000000000000000000000000BBB       QNDkDVwYopyG ZbSZJqQS bKB:                              Oranges Bananas                       Ness 9409                                              87 
08030014332004840007119000717000000000000000000000000000000000000000000000000000000000000000000000000BBB       QNDkDVwYopyG ZbSZJqQS bKB:                              Oranges Bananas                       Bradley 9030                                           05 
08030087514001333007209000043000000000000000000000000000000000000000000000000000000000000000000000000BBB       QNDkDVwYopyG ZbSZJqQS bKB:                              Oranges Bananas                       Carroll 4430                                           72 
08030052024003531000674000742000000000000000000000000000000000000000000000000000000000000000000000000BBB       QNDkDVwYopyG ZbSZJqQS bKB:                              Oranges Bananas                       Faribault 5624                                         37 
08030030744000707000555000114000000000000000000000000000000000000000000000000000000000000000000000000AAA       QNDkDVwYopyG ZbSZJqQS bKB:                              Apples A. Pears                       Chester 2707                                           88 
08030074900007012002240000351000000000000000000000000000000000000000000000000000000000000000000000000AAA       QNDkDVwYopyG ZbSZJqQS bKB:                              Apples A. Pears                       Treasure                                               52 
08030028018000371009321000557000000000000000000000000000000000000000000000000000000000000000000000000AAA       QNDkDVwYopyG ZbSZJqQS bKB:                              Oranges Bananas                       Stewart 4360                                           67 
08030025368006717008218000420000000000000000000000000000000000000000000000000000000000000000000000000AAA       QNDkDVwYopyG ZbSZJqQS bKB:                              Oranges Bananas                       Crockett 2586                                          44 
08030046584006555006347000301000000000000000000000000000000000000000000000000000000000000000000000000AAA       QNDkDVwYopyG ZbSZJqQS bKB:                              Apples A. Pears                       Roosevelt 4390                                         94 
08030038721003603004728000652000000000000000000000000000000000000000000000000000000000000000000000000BBB       QNDkDVwYopyG ZbSZJqQS bKB:                              Apples A. Pears                       Chesterfield                                           78 
08030061912002936000279000124000000000000000000000000000000000000000000000000000000000000000000000000BBB       QNDkDVwYopyG ZbSZJqQS bKB:                              Apples A. Pears                       Lee 4871                                               53 
08030024720009503005815000468000000000000000000000000000000000000000000000000000000000000000000000000BBB       QNDkDVwYopyG ZbSZJqQS bKB:                              Oranges Bananas                       Natchitoches Parish 7814                               59 
08030060307006012009696000201000000000000000000000000000000000000000000000000000000000000000000000000BBB       QNDkDVwYopyG ZbSZJqQS bKB:                              Oranges Bananas                       Bay 4978                                               98 
08030069164005421007493000454000000000000000000000000000000000000000000000000000000000000000000000000AAA       QNDkDVwYopyG ZbSZJqQS bKB:                              Apples A. Pears                       Union 7467                                             80 
08030064286002538000517000792000000000000000000000000000000000000000000000000000000000000000000000000BBB       QNDkDVwYopyG ZbSZJqQS bKB:                              Oranges Bananas                       San Luis Obispo 7387                                   40 
08030016966004574005208000261000000000000000000000000000000000000000000000000000000000000000000000000BBB       QNDkDVwYopyG ZbSZJqQS bKB:                              Oranges Bananas                       Beaver 1711                                            97 
08030069087004110008431000277000000000000000000000000000000000000000000000000000000000000000000000000AAA       QNDkDVwYopyG ZbSZJqQS bKB:                              Oranges Bananas                       Powell 4939                                            36 
08030052544008154003340000410000000000000000000000000000000000000000000000000000000000000000000000000AAA       QNDkDVwYopyG ZbSZJqQS bKB:                              Apples A. Pears                       Cambria 1730                                           30 
08030041580004573000830000232000000000000000000000000000000000000000000000000000000000000000000000000AAA       QNDkDVwYopyG ZbSZJqQS bKB:                              Oranges Bananas                       Franklin 5358                                          92 
08030017045001128005358000363000000000000000000000000000000000000000000000000000000000000000000000000AAA       QNDkDVwYopyG ZbSZJqQS bKB:                              Oranges Bananas                       Marquette 5024                                         50 
08030061215003650004790000046000000000000000000000000000000000000000000000000000000000000000000000000AAA       QNDkDVwYopyG ZbSZJqQS bKB:                              Apples A. Pears                       Bennett 1544                                           23 
08030020105001662001057000137000000000000000000000000000000000000000000000000000000000000000000000000AAA       QNDkDVwYopyG ZbSZJqQS bKB:                              Oranges Bananas                       Wexford 0944                                           25 
08030097600003392007394000737000000000000000000000000000000000000000000000000000000000000000000000000BBB       QNDkDVwYopyG ZbSZJqQS bKB:                              Oranges Bananas                       DeWitt 2003                                            82 
08030092618001754009448000345000000000000000000000000000000000000000000000000000000000000000000000000AAA       QNDkDVwYopyG ZbSZJqQS bKB:                              Oranges Bananas                       Washoe 7906                                            65 
08030056074000000001139000832000000000000000000000000000000000000000000000000000000000000000000000000BBB       QNDkDVwYopyG ZbSZJqQS bKB:                              Apples A. Pears                       Shelby 9681                                            77 
08030047114002089007972000359000000000000000000000000000000000000000000000000000000000000000000000000AAA       QNDkDVwYopyG ZbSZJqQS bKB:                              Oranges Bananas                       Pend Oreille 8192                                      48 
08030073823003530009878000433000000000000000000000000000000000000000000000000000000000000000000000000BBB       QNDkDVwYopyG ZbSZJqQS bKB:                              Oranges Bananas                       St. Johns 3640                                         70 
08030080227001158007497000292000000000000000000000000000000000000000000000000000000000000000000000000BBB       QNDkDVwYopyG ZbSZJqQS bKB:                              Apples A. Pears                       Woodruff 1908                                          77 
08030002735005406006073000841000000000000000000000000000000000000000000000000000000000000000000000000AAA       QNDkDVwYopyG ZbSZJqQS bKB:                              Oranges Bananas                       El Paso                                                35 
08030022038003283003559000132000000000000000000000000000000000000000000000000000000000000000000000000BBB       QNDkDVwYopyG ZbSZJqQS bKB:                              Oranges Bananas                       Jasper                                                 12 
08030009379008699001124000013000000000000000000000000000000000000000000000000000000000000000000000000AAA       QNDkDVwYopyG ZbSZJqQS bKB:                              Oranges Bananas                       Pratt 1485                                             11 
08030046711007289004857000568000000000000000000000000000000000000000000000000000000000000000000000000AAA       QNDkDVwYopyG ZbSZJqQS bKB:                              Oranges Bananas                       Lexington 1671                                         91 
08030089936004424009177000230000000000000000000000000000000000000000000000000000000000000000000000000BBB       QNDkDVwYopyG ZbSZJqQS bKB:                              Oranges Bananas                       Wells 4784                                             41 
08030040398001004005820000439000000000000000000000000000000000000000000000000000000000000000000000000AAA       QNDkDVwYopyG ZbSZJqQS bKB:                              Apples A. Pears                       Sussex 3991                                            84 
08030042510003736001862000357000000000000000000000000000000000000000000000000000000000000000000000000BBB       QNDkDVwYopyG ZbSZJqQS bKB:                              Oranges Bananas                       Mobile 8769                                            23 
08030074062006529006276000937000000000000000000000000000000000000000000000000000000000000000000000000AAA       QNDkDVwYopyG ZbSZJqQS bKB:                              Oranges Bananas                       Salem 0940                                             40 
08030048500004511002357000382000000000000000000000000000000000000000000000000000000000000000000000000BBB       QNDkDVwYopyG ZbSZJqQS bKB:                              Apples A. Pears                       Mendocino                                              53 
08030076723001222005711000161000000000000000000000000000000000000000000000000000000000000000000000000AAA       QNDkDVwYopyG ZbSZJqQS bKB:                              Oranges Bananas                       Dickens 8168                                           24 
08030083933001236003790000131000000000000000000000000000000000000000000000000000000000000000000000000BBB       QNDkDVwYopyG ZbSZJqQS bKB:                              Oranges Bananas                       Scott                                                  68 
08030035517005559007385000379000000000000000000000000000000000000000000000000000000000000000000000000AAA       QNDkDVwYopyG ZbSZJqQS bKB:                              Apples A. Pears                       Otter Tail 9627                                        69 
08030076287001076001618000202000000000000000000000000000000000000000000000000000000000000000000000000BBB       QNDkDVwYopyG ZbSZJqQS bKB:                              Apples A. Pears                       Roanoke, City of 6956                                  46 
08030059809005725005043000027000000000000000000000000000000000000000000000000000000000000000000000000AAA       QNDkDVwYopyG ZbSZJqQS bKB:                              Apples A. Pears                       Gates 7614                                             05 
08030002317003262005125000872000000000000000000000000000000000000000000000000000000000000000000000000AAA       QNDkDVwYopyG ZbSZJqQS bKB:                              Oranges Bananas                       Duchesne 3142                                          08 
08030012955001222008708000640000000000000000000000000000000000000000000000000000000000000000000000000BBB       QNDkDVwYopyG ZbSZJqQS bKB:                              Oranges Bananas                       Lynchburg, City of 1961                                60 
08030091742003506006736000406000000000000000000000000000000000000000000000000000000000000000000000000BBB       QNDkDVwYopyG ZbSZJqQS bKB:                              Apples A. Pears                       Pondera 9452                                           96 
08030009845001301002740000344000000000000000000000000000000000000000000000000000000000000000000000000AAA       QNDkDVwYopyG ZbSZJqQS bKB:                              Apples A. Pears                       Moniteau 6894                                          56 
08030022804009068002741000940000000000000000000000000000000000000000000000000000000000000000000000000BBB       QNDkDVwYopyG ZbSZJqQS bKB:                              Apples A. Pears                       Newton 2214                                            14 
08030030406007883007012000769000000000000000000000000000000000000000000000000000000000000000000000000BBB       QNDkDVwYopyG ZbSZJqQS bKB:                              Oranges Bananas                       New London 7323                                        77 
08030096897005378006830000563000000000000000000000000000000000000000000000000000000000000000000000000BBB       QNDkDVwYopyG ZbSZJqQS bKB:                              Apples A. Pears                       Fall River 6315                                        37 
08030031829001878000463000908000000000000000000000000000000000000000000000000000000000000000000000000BBB       QNDkDVwYopyG ZbSZJqQS bKB:                              Oranges Bananas                       Nolan 6246                                             06 
08030004812005478005496000956000000000000000000000000000000000000000000000000000000000000000000000000AAA       QNDkDVwYopyG ZbSZJqQS bKB:                              Oranges Bananas                       Meade 5108                                             99 
08030046821002631002474000302000000000000000000000000000000000000000000000000000000000000000000000000BBB       QNDkDVwYopyG ZbSZJqQS bKB:                              Oranges Bananas                       Kimble                                                 61 
08030081329007136005227000184000000000000000000000000000000000000000000000000000000000000000000000000AAA       QNDkDVwYopyG ZbSZJqQS bKB:                              Apples A. Pears                       Sullivan                                               39 
08030072650000049006499000434000000000000000000000000000000000000000000000000000000000000000000000000AAA       QNDkDVwYopyG ZbSZJqQS bKB:                              Oranges Bananas                       Boone 5374                                             56 
08030053378003471005354000831000000000000000000000000000000000000000000000000000000000000000000000000BBB       QNDkDVwYopyG ZbSZJqQS bKB:                              Oranges Bananas                       Lee                                                    17 
08030093996002854004852000706000000000000000000000000000000000000000000000000000000000000000000000000BBB       QNDkDVwYopyG ZbSZJqQS bKB:                              Oranges Bananas                       Lake 4143                                              67 
08030097751006843004097000710000000000000000000000000000000000000000000000000000000000000000000000000BBB       QNDkDVwYopyG ZbSZJqQS bKB:                              Oranges Bananas                       Jim Hogg 8276                                          03 
08030087535000666003358000624000000000000000000000000000000000000000000000000000000000000000000000000AAA       QNDkDVwYopyG ZbSZJqQS bKB:                              Oranges Bananas                       Bristol 2647                                           91 
08030095756004569007371000435000000000000000000000000000000000000000000000000000000000000000000000000AAA       QNDkDVwYopyG ZbSZJqQS bKB:                              Apples A. Pears                       Caldwell 6380                                          04 
08030058881004705008940000558000000000000000000000000000000000000000000000000000000000000000000000000AAA       QNDkDVwYopyG ZbSZJqQS bKB:                              Oranges Bananas                       Sedgwick 2057                                          55 
08030084754001118005566000296000000000000000000000000000000000000000000000000000000000000000000000000BBB       QNDkDVwYopyG ZbSZJqQS bKB:                              Apples A. Pears                       Franklin 3620                                          38 
08030058239001210003984000304000000000000000000000000000000000000000000000000000000000000000000000000AAA       QNDkDVwYopyG ZbSZJqQS bKB:                              Oranges Bananas                       Paulding 6855                                          70 
08030010338002603002650000851000000000000000000000000000000000000000000000000000000000000000000000000AAA       QNDkDVwYopyG ZbSZJqQS bKB:                              Apples A. Pears                       Hall 1084                                              18 
08030013843002990005017000903000000000000000000000000000000000000000000000000000000000000000000000000BBB       QNDkDVwYopyG ZbSZJqQS bKB:                              Oranges Bananas                       Walton 1192                                            12 
08030082530007803002189000501000000000000000000000000000000000000000000000000000000000000000000000000AAA       QNDkDVwYopyG ZbSZJqQS bKB:                              Oranges Bananas                       El Paso 5173                                           76 
08030027510006180006191000092000000000000000000000000000000000000000000000000000000000000000000000000BBB       QNDkDVwYopyG ZbSZJqQS bKB:                              Oranges Bananas                       Jefferson Davis 8553                                   40 
08030064669001867000824000206000000000000000000000000000000000000000000000000000000000000000000000000BBB       QNDkDVwYopyG ZbSZJqQS bKB:                              Oranges Bananas                       Daggett 5851                                           22 
08030089661000160004001000355000000000000000000000000000000000000000000000000000000000000000000000000BBB       QNDkDVwYopyG ZbSZJqQS bKB:                              Apples A. Pears                       Potter 3776                                            12 
08030088179005784001030000467000000000000000000000000000000000000000000000000000000000000000000000000BBB       QNDkDVwYopyG ZbSZJqQS bKB:                              Oranges Bananas                       Hudspeth 7800                                          36 
08030058959008723002165000619000000000000000000000000000000000000000000000000000000000000000000000000BBB       QNDkDVwYopyG ZbSZJqQS bKB:                              Apples A. Pears                       Pierce 9106                                            49 
08030002781001252005417000445000000000000000000000000000000000000000000000000000000000000000000000000AAA       QNDkDVwYopyG ZbSZJqQS bKB:                              Apples A. Pears                       Carter 3289                                            10 
08030088534007104002444000660000000000000000000000000000000000000000000000000000000000000000000000000BBB       QNDkDVwYopyG ZbSZJqQS bKB:                              Apples A. Pears                       Citrus 6963                                            12 
08030094019002639001792000401000000000000000000000000000000000000000000000000000000000000000000000000BBB       QNDkDVwYopyG ZbSZJqQS bKB:                              Apples A. Pears                       Mitchell 9939                                          94 
08030015616008192002420000202000000000000000000000000000000000000000000000000000000000000000000000000BBB       QNDkDVwYopyG ZbSZJqQS bKB:                              Oranges Bananas                       Ballard 4160                                           15 
08030051893001244005242000193000000000000000000000000000000000000000000000000000000000000000000000000AAA       QNDkDVwYopyG ZbSZJqQS bKB:                              Oranges Bananas                       Republic 6512                                          17 
08030015557005414004980000586000000000000000000000000000000000000000000000000000000000000000000000000AAA       QNDkDVwYopyG ZbSZJqQS bKB:                              Apples A. Pears                       Hooker 0182                                            28 
08030043809005380007677000785000000000000000000000000000000000000000000000000000000000000000000000000AAA       QNDkDVwYopyG ZbSZJqQS bKB:                              Oranges Bananas                       Franklin 0689                                          10 
08030053653005605008852000967000000000000000000000000000000000000000000000000000000000000000000000000BBB       QNDkDVwYopyG ZbSZJqQS bKB:                              Oranges Bananas                       Sangamon 6645                                          95 
08030022203003360001311000896000000000000000000000000000000000000000000000000000000000000000000000000AAA       QNDkDVwYopyG ZbSZJqQS bKB:                              Oranges Bananas                       Story 8144                                             70 
08030060175001835008296000976000000000000000000000000000000000000000000000000000000000000000000000000AAA       QNDkDVwYopyG ZbSZJqQS bKB:                              Apples A. Pears                       Adams                                                  11 
08030000293001595003090000659000000000000000000000000000000000000000000000000000000000000000000000000BBB       QNDkDVwYopyG ZbSZJqQS bKB:                              Oranges Bananas                       Southeast Fairbanks Census Area 2351                   81 
08030073468009759009033000333000000000000000000000000000000000000000000000000000000000000000000000000BBB       QNDkDVwYopyG ZbSZJqQS bKB:                              Oranges Bananas                       Fayette 4986                                           14 
08030079323003118003008000000000000000000000000000000000000000000000000000000000000000000000000000000BBB       QNDkDVwYopyG ZbSZJqQS bKB:                              Oranges Bananas                       Walton 3741                                            40 
08030095728002895008001000255000000000000000000000000000000000000000000000000000000000000000000000000BBB       QNDkDVwYopyG ZbSZJqQS bKB:                              Oranges Bananas                       Hughes 3134                                            37 
08030056718000125007262000047000000000000000000000000000000000000000000000000000000000000000000000000AAA       QNDkDVwYopyG ZbSZJqQS bKB:                              Oranges Bananas                       Kemper 9837                                            35 
08030016949000490008100000290000000000000000000000000000000000000000000000000000000000000000000000000AAA       QNDkDVwYopyG ZbSZJqQS bKB:                              Oranges Bananas                       Ward 4083                                              37 
08030078807005097008625000567000000000000000000000000000000000000000000000000000000000000000000000000BBB       QNDkDVwYopyG ZbSZJqQS bKB:                              Apples A. Pears                       Martin 4137                                            75 
08030018556006129000341000035000000000000000000000000000000000000000000000000000000000000000000000000AAA       QNDkDVwYopyG ZbSZJqQS bKB:                              Apples A. Pears                       Wood 0351                                              99 
08030047798005792001594000480000000000000000000000000000000000000000000000000000000000000000000000000AAA       QNDkDVwYopyG ZbSZJqQS bKB:                              Oranges Bananas                       Dawes 5164                                             55 
08030082057002723003662000334000000000000000000000000000000000000000000000000000000000000000000000000AAA       QNDkDVwYopyG ZbSZJqQS bKB:                              Oranges Bananas                       Uvalde 1100                                            35 
08030026349002091009116000567000000000000000000000000000000000000000000000000000000000000000000000000AAA       QNDkDVwYopyG ZbSZJqQS bKB:                              Apples A. Pears                       Valley 4550                                            68 
08030008569002070001693000337000000000000000000000000000000000000000000000000000000000000000000000000BBB       QNDkDVwYopyG ZbSZJqQS bKB:                              Apples A. Pears                       East Feliciana Parish 4542                             00 
08030018986002833004245000875000000000000000000000000000000000000000000000000000000000000000000000000BBB       QNDkDVwYopyG ZbSZJqQS bKB:                              Apples A. Pears                       Brewster 5823                                          46 
08030039261009512008304000034000000000000000000000000000000000000000000000000000000000000000000000000AAA       QNDkDVwYopyG ZbSZJqQS bKB:                              Apples A. Pears                       Hancock 8837                                           25 
08030020637002942005263000539000000000000000000000000000000000000000000000000000000000000000000000000BBB       QNDkDVwYopyG ZbSZJqQS bKB:                              Oranges Bananas                       Rush 3860                                              04 
08030014336000911000320000929000000000000000000000000000000000000000000000000000000000000000000000000AAA       QNDkDVwYopyG ZbSZJqQS bKB:                              Apples A. Pears                       Hayes 5604                                             21 
08030078671005282008926000172000000000000000000000000000000000000000000000000000000000000000000000000BBB       QNDkDVwYopyG ZbSZJqQS bKB:                              Apples A. Pears                       Sanpete 7589                                           93 
08030087318007333006057000372000000000000000000000000000000000000000000000000000000000000000000000000BBB       QNDkDVwYopyG ZbSZJqQS bKB:                              Apples A. Pears                       Chaffee 2578                                           24 
08030001825009945007488000497000000000000000000000000000000000000000000000000000000000000000000000000AAA       QNDkDVwYopyG ZbSZJqQS bKB:                              Oranges Bananas                       Montgomery 4945                                        25 
08030048494009218008983000273000000000000000000000000000000000000000000000000000000000000000000000000BBB       QNDkDVwYopyG ZbSZJqQS bKB:                              Oranges Bananas                       Warren 0527                                            85 
08030078806003963004391000786000000000000000000000000000000000000000000000000000000000000000000000000BBB       QNDkDVwYopyG ZbSZJqQS bKB:                              Apples A. Pears                       Fentress 5705                                          29 
08030079770006499009192000099000000000000000000000000000000000000000000000000000000000000000000000000BBB       QNDkDVwYopyG ZbSZJqQS bKB:                              Oranges Bananas                       Rutherford 2465                                        75 
08030031911009837006842000962000000000000000000000000000000000000000000000000000000000000000000000000AAA       QNDkDVwYopyG ZbSZJqQS bKB:                              Oranges Bananas                       Montgomery 4406                                        33 
08030063158008680000821000626000000000000000000000000000000000000000000000000000000000000000000000000AAA       QNDkDVwYopyG ZbSZJqQS bKB:                              Oranges Bananas                       Aransas                                                74 
08030050476005056005735000254000000000000000000000000000000000000000000000000000000000000000000000000BBB       QNDkDVwYopyG ZbSZJqQS bKB:                              Oranges Bananas                       Jefferson 5527                                         60 
08030036566006084008149000366000000000000000000000000000000000000000000000000000000000000000000000000BBB       QNDkDVwYopyG ZbSZJqQS bKB:                              Oranges Bananas                       Ste. Genevieve 3970                                    17 
08030058599000190000782000794000000000000000000000000000000000000000000000000000000000000000000000000BBB       QNDkDVwYopyG ZbSZJqQS bKB:                              Oranges Bananas                       Mariposa 6351                                          54 
08030025854002253002591000657000000000000000000000000000000000000000000000000000000000000000000000000AAA       QNDkDVwYopyG ZbSZJqQS bKB:                              Oranges Bananas                       Powhatan 3932                                          76 
08030011375007752001304000314000000000000000000000000000000000000000000000000000000000000000000000000BBB       QNDkDVwYopyG ZbSZJqQS bKB:                              Apples A. Pears                       Franklin Parish 1287                                   53 
08030018225006328007439000050000000000000000000000000000000000000000000000000000000000000000000000000AAA       QNDkDVwYopyG ZbSZJqQS bKB:                              Oranges Bananas                       Dallas 8633                                            23 
08030091972004339001580000964000000000000000000000000000000000000000000000000000000000000000000000000AAA       QNDkDVwYopyG ZbSZJqQS bKB:                              Apples A. Pears                       Thomas 3549                                            43 
08030005813000278007156000218000000000000000000000000000000000000000000000000000000000000000000000000AAA       QNDkDVwYopyG ZbSZJqQS bKB:                              Oranges Bananas                       Warren 4989                                            07 
08030083229000332003596000855000000000000000000000000000000000000000000000000000000000000000000000000BBB       QNDkDVwYopyG ZbSZJqQS bKB:                              Apples A. Pears                       Cullman 8045                                           06 
08030019230005944009669000753000000000000000000000000000000000000000000000000000000000000000000000000BBB       QNDkDVwYopyG ZbSZJqQS bKB:                              Apples A. Pears                       Freestone 6929                                         73 
08030052739006220001819000113000000000000000000000000000000000000000000000000000000000000000000000000AAA       QNDkDVwYopyG ZbSZJqQS bKB:                              Apples A. Pears                       Staunton, City of 2927                                 81 
08030023117006921002725000237000000000000000000000000000000000000000000000000000000000000000000000000AAA       QNDkDVwYopyG ZbSZJqQS bKB:                              Oranges Bananas                       Sullivan 6275                                          30 
08030098018000979007332000929000000000000000000000000000000000000000000000000000000000000000000000000BBB       QNDkDVwYopyG ZbSZJqQS bKB:                              Oranges Bananas                       Murray 2031                                            30 
08030069412008232005442000579000000000000000000000000000000000000000000000000000000000000000000000000BBB       QNDkDVwYopyG ZbSZJqQS bKB:                              Oranges Bananas                       Merced 9786                                            95 
08030059876009002001136000877000000000000000000000000000000000000000000000000000000000000000000000000AAA       QNDkDVwYopyG ZbSZJqQS bKB:                              Oranges Bananas                       Day 2365                                               90 
08030006359007727006825000666000000000000000000000000000000000000000000000000000000000000000000000000AAA       QNDkDVwYopyG ZbSZJqQS bKB:                              Apples A. Pears                       Hanover 2633                                           72 
08030074010000068005491000508000000000000000000000000000000000000000000000000000000000000000000000000AAA       QNDkDVwYopyG ZbSZJqQS bKB:                              Apples A. Pears                       Aiken 5627                                             18 
08030047269005426006256000082000000000000000000000000000000000000000000000000000000000000000000000000AAA       QNDkDVwYopyG ZbSZJqQS bKB:                              Apples A. Pears                       Dolores 2236                                           42 
08030094829001113008050000717000000000000000000000000000000000000000000000000000000000000000000000000BBB       QNDkDVwYopyG ZbSZJqQS bKB:                              Oranges Bananas                       Grant 9077                                             80 
08030050220002327000558000698000000000000000000000000000000000000000000000000000000000000000000000000AAA       QNDkDVwYopyG ZbSZJqQS bKB:                              Apples A. Pears                       Jerome 3827                                            46 
08030048523000635007474000998000000000000000000000000000000000000000000000000000000000000000000000000BBB       QNDkDVwYopyG ZbSZJqQS bKB:                              Apples A. Pears                       Reno 8235                                              80 
08030064038006794003170000624000000000000000000000000000000000000000000000000000000000000000000000000BBB       QNDkDVwYopyG ZbSZJqQS bKB:                              Apples A. Pears                       Oregon 8483                                            32 
08030093881005607001981000935000000000000000000000000000000000000000000000000000000000000000000000000AAA       QNDkDVwYopyG ZbSZJqQS bKB:                              Oranges Bananas                       Real 2766                                              51 
08030065542005014003559000278000000000000000000000000000000000000000000000000000000000000000000000000AAA       QNDkDVwYopyG ZbSZJqQS bKB:                              Oranges Bananas                       Schley 7737                                            46 
08030001159005416004569000212000000000000000000000000000000000000000000000000000000000000000000000000AAA       QNDkDVwYopyG ZbSZJqQS bKB:                              Oranges Bananas                       Wayne 0660                                             93 
08030087051003132000548000621000000000000000000000000000000000000000000000000000000000000000000000000AAA       QNDkDVwYopyG ZbSZJqQS bKB:                              Oranges Bananas                       Richmond 2908                                          06 
08030004995001284009551000804000000000000000000000000000000000000000000000000000000000000000000000000AAA       QNDkDVwYopyG ZbSZJqQS bKB:                              Oranges Bananas                       Worth 1140                                             14 
08030051523004271006973000375000000000000000000000000000000000000000000000000000000000000000000000000BBB       QNDkDVwYopyG ZbSZJqQS bKB:                              Apples A. Pears                       Lake 0800                                              41 
08030027459008323002165000222000000000000000000000000000000000000000000000000000000000000000000000000AAA       QNDkDVwYopyG ZbSZJqQS bKB:                              Oranges Bananas                       Chatham 2518                                           08 
08030007239000542004750000516000000000000000000000000000000000000000000000000000000000000000000000000AAA       QNDkDVwYopyG ZbSZJqQS bKB:                              Apples A. Pears                       Clay 6046                                              06 
08030049318004260008747000807000000000000000000000000000000000000000000000000000000000000000000000000AAA       QNDkDVwYopyG ZbSZJqQS bKB:                              Oranges Bananas                       Lenawee 7908                                           32 
08030011920008920006652000569000000000000000000000000000000000000000000000000000000000000000000000000AAA       QNDkDVwYopyG ZbSZJqQS bKB:                              Oranges Bananas                       Williamson 8383                                        28 
08030023091009589004488000776000000000000000000000000000000000000000000000000000000000000000000000000AAA       QNDkDVwYopyG ZbSZJqQS bKB:                              Oranges Bananas                       Lee 5846                                               42 
08030035365001075006339000790000000000000000000000000000000000000000000000000000000000000000000000000BBB       QNDkDVwYopyG ZbSZJqQS bKB:                              Apples A. Pears                       Pinellas 8604                                          74 
08030082545002430007367000907000000000000000000000000000000000000000000000000000000000000000000000000AAA       QNDkDVwYopyG ZbSZJqQS bKB:                              Apples A. Pears                       Aransas 9883                                           11 
08030077613005930009773000690000000000000000000000000000000000000000000000000000000000000000000000000AAA       QNDkDVwYopyG ZbSZJqQS bKB:                              Apples A. Pears                       Wayne 8055                                             63 
08030027511002621001210000769000000000000000000000000000000000000000000000000000000000000000000000000AAA       QNDkDVwYopyG ZbSZJqQS bKB:                              Apples A. Pears                       Webster 6710                                           05 
08030096689006033005609000790000000000000000000000000000000000000000000000000000000000000000000000000AAA       QNDkDVwYopyG ZbSZJqQS bKB:                              Apples A. Pears                       Perry 7364                                             83 
08030008002000355004246000267000000000000000000000000000000000000000000000000000000000000000000000000BBB       QNDkDVwYopyG ZbSZJqQS bKB:                              Oranges Bananas                       Kenosha 8985                                           10 
08030082148007244005783000444000000000000000000000000000000000000000000000000000000000000000000000000BBB       QNDkDVwYopyG ZbSZJqQS bKB:                              Apples A. Pears                       Ripley 8820                                            34 
08030090279002632007690000120000000000000000000000000000000000000000000000000000000000000000000000000AAA       QNDkDVwYopyG ZbSZJqQS bKB:                              Oranges Bananas                       Baldwin 1179                                           89 
08030043283007442000907000111000000000000000000000000000000000000000000000000000000000000000000000000BBB       QNDkDVwYopyG ZbSZJqQS bKB:                              Apples A. Pears                       Crawford 7857                                          35 
08030090994007895008626000870000000000000000000000000000000000000000000000000000000000000000000000000AAA       QNDkDVwYopyG ZbSZJqQS bKB:                              Oranges Bananas                       Tama 0987                                              26 
08030053254009420009603000163000000000000000000000000000000000000000000000000000000000000000000000000BBB       QNDkDVwYopyG ZbSZJqQS bKB:                              Oranges Bananas                       Yakutat, City and Borough of 4194                      29 
08030090175001415000873000404000000000000000000000000000000000000000000000000000000000000000000000000BBB       QNDkDVwYopyG ZbSZJqQS bKB:                              Apples A. Pears                       Alger 6833                                             68 
08030090596004297008517000471000000000000000000000000000000000000000000000000000000000000000000000000BBB       QNDkDVwYopyG ZbSZJqQS bKB:                              Oranges Bananas                       Canadian 3271                                          52 
08030033415005145008092000079000000000000000000000000000000000000000000000000000000000000000000000000AAA       QNDkDVwYopyG ZbSZJqQS bKB:                              Oranges Bananas                       Coosa 7681                                             19 
08030072248000544003623000362000000000000000000000000000000000000000000000000000000000000000000000000BBB       QNDkDVwYopyG ZbSZJqQS bKB:                              Oranges Bananas                       Union 0386                                             28 
08030057343001726006014000248000000000000000000000000000000000000000000000000000000000000000000000000AAA       QNDkDVwYopyG ZbSZJqQS bKB:                              Oranges Bananas                       Warren 0285                                            62 
08030028628007979002815000369000000000000000000000000000000000000000000000000000000000000000000000000AAA       QNDkDVwYopyG ZbSZJqQS bKB:                              Apples A. Pears                       Walker 4615                                            90 
08030061675004079007373000786000000000000000000000000000000000000000000000000000000000000000000000000AAA       QNDkDVwYopyG ZbSZJqQS bKB:                              Oranges Bananas                       Stephens 6646                                          29 
08030039037009086001613000897000000000000000000000000000000000000000000000000000000000000000000000000AAA       QNDkDVwYopyG ZbSZJqQS bKB:                              Apples A. Pears                       Newton 4643                                            15 
08030059382000396000937000901000000000000000000000000000000000000000000000000000000000000000000000000BBB       QNDkDVwYopyG ZbSZJqQS bKB:                              Oranges Bananas                       Taylor 9099                                            45 
08030054938004277007925000007000000000000000000000000000000000000000000000000000000000000000000000000AAA       QNDkDVwYopyG ZbSZJqQS bKB:                              Apples A. Pears                       Mills 8411                                             47 
08030093825008421005527000240000000000000000000000000000000000000000000000000000000000000000000000000BBB       QNDkDVwYopyG ZbSZJqQS bKB:                              Apples A. Pears                       Juniata 6630                                           62 
08030054269005738006676000857000000000000000000000000000000000000000000000000000000000000000000000000AAA       QNDkDVwYopyG ZbSZJqQS bKB:                              Oranges Bananas                       Roberts 3273                                           07 
08030072851001763009215000014000000000000000000000000000000000000000000000000000000000000000000000000BBB       QNDkDVwYopyG ZbSZJqQS bKB:                              Oranges Bananas                       Scotland 9021                                          47 
08030019965009667001540000947000000000000000000000000000000000000000000000000000000000000000000000000BBB       QNDkDVwYopyG ZbSZJqQS bKB:                              Oranges Bananas                       Jackson 0980                                           18 
08030028307000530006653000461000000000000000000000000000000000000000000000000000000000000000000000000BBB       QNDkDVwYopyG ZbSZJqQS bKB:                              Oranges Bananas                       Martin 0615                                            01 
08030099748008497004703000073000000000000000000000000000000000000000000000000000000000000000000000000AAA       QNDkDVwYopyG ZbSZJqQS bKB:                              Apples A. Pears                       Crawford 8824                                          49 
08030077919003418002740000736000000000000000000000000000000000000000000000000000000000000000000000000BBB       QNDkDVwYopyG ZbSZJqQS bKB:                              Apples A. Pears                       Dixon 6608                                             90 
08030018244004105006096000547000000000000000000000000000000000000000000000000000000000000000000000000AAA       QNDkDVwYopyG ZbSZJqQS bKB:                              Apples A. Pears                       Butler 6300                                            40 
08030012013003999003055000315000000000000000000000000000000000000000000000000000000000000000000000000AAA       QNDkDVwYopyG ZbSZJqQS bKB:                              Oranges Bananas                       Boone 0074                                             59 
08030028340001835009636000573000000000000000000000000000000000000000000000000000000000000000000000000BBB       QNDkDVwYopyG ZbSZJqQS bKB:                              Apples A. Pears                       Marengo 5725                                           82 
08030020497000719006544000898000000000000000000000000000000000000000000000000000000000000000000000000AAA       QNDkDVwYopyG ZbSZJqQS bKB:                              Oranges Bananas                       Glenn 0053                                             91 
08030026152006145007557000533000000000000000000000000000000000000000000000000000000000000000000000000BBB       QNDkDVwYopyG ZbSZJqQS bKB:                              Apples A. Pears                       Taylor 9811                                            25 
08030003330006934009186000530000000000000000000000000000000000000000000000000000000000000000000000000BBB       QNDkDVwYopyG ZbSZJqQS bKB:                              Apples A. Pears                       Floyd 9067                                             94 
08030073303005323002506000081000000000000000000000000000000000000000000000000000000000000000000000000BBB       QNDkDVwYopyG ZbSZJqQS bKB:                              Oranges Bananas                       St. James Parish 9427                                  14 
08030033736004616000411000166000000000000000000000000000000000000000000000000000000000000000000000000BBB       QNDkDVwYopyG ZbSZJqQS bKB:                              Apples A. Pears                       Trousdale 6723                                         18 
08030039863009904002314000643000000000000000000000000000000000000000000000000000000000000000000000000AAA       QNDkDVwYopyG ZbSZJqQS bKB:                              Apples A. Pears                       Lake 1299                                              64 
08030069033008771008712000610000000000000000000000000000000000000000000000000000000000000000000000000BBB       QNDkDVwYopyG ZbSZJqQS bKB:                              Apples A. Pears                       Kanabec 3888                                           60 
08030075743004351000869000715000000000000000000000000000000000000000000000000000000000000000000000000AAA       QNDkDVwYopyG ZbSZJqQS bKB:                              Oranges Bananas                       Union 7205                                             93 
08030052441006050002772000695000000000000000000000000000000000000000000000000000000000000000000000000AAA       QNDkDVwYopyG ZbSZJqQS bKB:                              Oranges Bananas                       Barrow 1580                                            95 
08030084485000085003427000644000000000000000000000000000000000000000000000000000000000000000000000000AAA       QNDkDVwYopyG ZbSZJqQS bKB:                              Oranges Bananas                       Tipton 3832                                            27 
08030009517004668009225000094000000000000000000000000000000000000000000000000000000000000000000000000BBB       QNDkDVwYopyG ZbSZJqQS bKB:                              Oranges Bananas                       Barton 9574                                            37 
08030006428002867002529000856000000000000000000000000000000000000000000000000000000000000000000000000AAA       QNDkDVwYopyG ZbSZJqQS bKB:                              Apples A. Pears                       Union 0437                                             42 
08030090421009524009332000265000000000000000000000000000000000000000000000000000000000000000000000000BBB       QNDkDVwYopyG ZbSZJqQS bKB:                              Apples A. Pears                       Cass 4551                                              41 
08030060907005678002193000310000000000000000000000000000000000000000000000000000000000000000000000000BBB       QNDkDVwYopyG ZbSZJqQS bKB:                              Oranges Bananas                       Harrison 9510                                          16 
08030058705003630003676000861000000000000000000000000000000000000000000000000000000000000000000000000BBB       QNDkDVwYopyG ZbSZJqQS bKB:                              Oranges Bananas                       Charlotte 8915                                         91 
08030013964009295001497000804000000000000000000000000000000000000000000000000000000000000000000000000AAA       QNDkDVwYopyG ZbSZJqQS bKB:                              Apples A. Pears                       Bailey 0402                                            51 
08030007994004273009266000763000000000000000000000000000000000000000000000000000000000000000000000000AAA       QNDkDVwYopyG ZbSZJqQS bKB:                              Apples A. Pears                       West Carroll Parish 0826                               33 
08030025613001972004525000209000000000000000000000000000000000000000000000000000000000000000000000000BBB       QNDkDVwYopyG ZbSZJqQS bKB:                              Apples A. Pears                       Custer 2923                                            76 
08030061681009583001258000817000000000000000000000000000000000000000000000000000000000000000000000000BBB       QNDkDVwYopyG ZbSZJqQS bKB:                              Apples A. Pears                       Riley                                                  76 
08030092153006903002118000706000000000000000000000000000000000000000000000000000000000000000000000000AAA       QNDkDVwYopyG ZbSZJqQS bKB:                              Oranges Bananas                       Prince George's 2344                                   53 
08030066353000898009572000115000000000000000000000000000000000000000000000000000000000000000000000000AAA       QNDkDVwYopyG ZbSZJqQS bKB:                              Oranges Bananas                       Philadelphia                                           30 
08030049279007181005479000577000000000000000000000000000000000000000000000000000000000000000000000000AAA       QNDkDVwYopyG ZbSZJqQS bKB:                              Oranges Bananas                       Edmunds 6196                                           64 
08030058662003038001907000667000000000000000000000000000000000000000000000000000000000000000000000000AAA       QNDkDVwYopyG ZbSZJqQS bKB:                              Apples A. Pears                       Starke 8515                                            25 
08030030731006328008464000497000000000000000000000000000000000000000000000000000000000000000000000000BBB       QNDkDVwYopyG ZbSZJqQS bKB:                              Apples A. Pears                       Jasper 4504                                            23 
08030000470004073006913000389000000000000000000000000000000000000000000000000000000000000000000000000AAA       QNDkDVwYopyG ZbSZJqQS bKB:                              Oranges Bananas                       Ohio                                                   44 
08030041346002264000283000659000000000000000000000000000000000000000000000000000000000000000000000000AAA       QNDkDVwYopyG ZbSZJqQS bKB:                              Oranges Bananas                       Rusk 7904                                              50 
08030073096000381006113000263000000000000000000000000000000000000000000000000000000000000000000000000AAA       QNDkDVwYopyG ZbSZJqQS bKB:                              Apples A. Pears                       Koochiching 4078                                       55 
08030044317002909003133000777000000000000000000000000000000000000000000000000000000000000000000000000AAA       QNDkDVwYopyG ZbSZJqQS bKB:                              Oranges Bananas                       Williamson 8081                                        59 
08030090174007473009413000646000000000000000000000000000000000000000000000000000000000000000000000000AAA       QNDkDVwYopyG ZbSZJqQS bKB:                              Oranges Bananas                       Hampshire 0579                                         39 
08030052356009181004963000040000000000000000000000000000000000000000000000000000000000000000000000000AAA       QNDkDVwYopyG ZbSZJqQS bKB:                              Oranges Bananas                       Kodiak Island Borough 1619                             02 
08030096054004205008434000554000000000000000000000000000000000000000000000000000000000000000000000000AAA       QNDkDVwYopyG ZbSZJqQS bKB:                              Oranges Bananas                       Sac 8667                                               93 
08030017478009854003187000448000000000000000000000000000000000000000000000000000000000000000000000000BBB       QNDkDVwYopyG ZbSZJqQS bKB:                              Apples A. Pears                       Pike 3751                                              90 
08030083975009984006556000008000000000000000000000000000000000000000000000000000000000000000000000000AAA       QNDkDVwYopyG ZbSZJqQS bKB:                              Oranges Bananas                       Holmes 0764                                            63 
08030036279008604004385000630000000000000000000000000000000000000000000000000000000000000000000000000BBB       QNDkDVwYopyG ZbSZJqQS bKB:                              Oranges Bananas                       Union 5000                                             58 
08030022002005573007573000947000000000000000000000000000000000000000000000000000000000000000000000000AAA       QNDkDVwYopyG ZbSZJqQS bKB:                              Oranges Bananas                       Madison                                                20 
08030059791001792007823000369000000000000000000000000000000000000000000000000000000000000000000000000BBB       QNDkDVwYopyG ZbSZJqQS bKB:                              Oranges Bananas                       Chambers                                               37 
08030007977007229000428000552000000000000000000000000000000000000000000000000000000000000000000000000BBB       QNDkDVwYopyG ZbSZJqQS bKB:                              Oranges Bananas                       Lumpkin 4763                                           79 
08030046046009841009155000533000000000000000000000000000000000000000000000000000000000000000000000000AAA       QNDkDVwYopyG ZbSZJqQS bKB:                              Apples A. Pears                       Lee 7357                                               58 
08030032139003820009586000109000000000000000000000000000000000000000000000000000000000000000000000000BBB       QNDkDVwYopyG ZbSZJqQS bKB:                              Oranges Bananas                       Ziebach 9222                                           90 
08030096994000198008527000028000000000000000000000000000000000000000000000000000000000000000000000000AAA       QNDkDVwYopyG ZbSZJqQS bKB:                              Oranges Bananas                       Jackson 8679                                           12 
08030029173008330006460000116000000000000000000000000000000000000000000000000000000000000000000000000BBB       QNDkDVwYopyG ZbSZJqQS bKB:                              Oranges Bananas                       Burnet                                                 49 
08030041718002148008696000889000000000000000000000000000000000000000000000000000000000000000000000000BBB       QNDkDVwYopyG ZbSZJqQS bKB:                              Apples A. Pears                       Amelia 8152                                            18 
08030004424002220001574000981000000000000000000000000000000000000000000000000000000000000000000000000AAA       QNDkDVwYopyG ZbSZJqQS bKB:                              Oranges Bananas                       Grant 0813                                             03 
08030025561003344003445000684000000000000000000000000000000000000000000000000000000000000000000000000AAA       QNDkDVwYopyG ZbSZJqQS bKB:                              Oranges Bananas                       Lyon 7326                                              81 
08030045001009946009615000360000000000000000000000000000000000000000000000000000000000000000000000000AAA       QNDkDVwYopyG ZbSZJqQS bKB:                              Apples A. Pears                       Mesa 3170                                              05 
08030082344002083003366000385000000000000000000000000000000000000000000000000000000000000000000000000AAA       QNDkDVwYopyG ZbSZJqQS bKB:                              Oranges Bananas                       Conecuh 5765                                           08 
08030019318003635001732000773000000000000000000000000000000000000000000000000000000000000000000000000AAA       QNDkDVwYopyG ZbSZJqQS bKB:                              Oranges Bananas                       Wilson 6370                                            51 
08030065881001730001836000592000000000000000000000000000000000000000000000000000000000000000000000000AAA       QNDkDVwYopyG ZbSZJqQS bKB:                              Apples A. Pears                       Loudoun 5393                                           23 
08030029477005793008210000439000000000000000000000000000000000000000000000000000000000000000000000000AAA       QNDkDVwYopyG ZbSZJqQS bKB:                              Apples A. Pears                       Ochiltree 6743                                         24 
08030095989003007000517000098000000000000000000000000000000000000000000000000000000000000000000000000BBB       QNDkDVwYopyG ZbSZJqQS bKB:                              Apples A. Pears                       Palo Pinto 8621                                        48 
08030037342003979003263000213000000000000000000000000000000000000000000000000000000000000000000000000BBB       QNDkDVwYopyG ZbSZJqQS bKB:                              Oranges Bananas                       Pemiscot 8917                                          53 
08030062579002707001930000184000000000000000000000000000000000000000000000000000000000000000000000000BBB       QNDkDVwYopyG ZbSZJqQS bKB:                              Oranges Bananas                       Washtenaw 8476                                         35 
08030083247006168004715000166000000000000000000000000000000000000000000000000000000000000000000000000BBB       QNDkDVwYopyG ZbSZJqQS bKB:                              Apples A. Pears                       Benton 6669                                            91 
08030030038001238004630000268000000000000000000000000000000000000000000000000000000000000000000000000BBB       QNDkDVwYopyG ZbSZJqQS bKB:                              Apples A. Pears                       Montague 5770                                          53 
08030075886009273004238000274000000000000000000000000000000000000000000000000000000000000000000000000AAA       QNDkDVwYopyG ZbSZJqQS bKB:                              Oranges Bananas                       Lamar 9796                                             31 
08030053586009636007709000853000000000000000000000000000000000000000000000000000000000000000000000000BBB       QNDkDVwYopyG ZbSZJqQS bKB:                              Oranges Bananas                       Carson City, Consolidated Municipality of              33 
08030068406000806001208000478000000000000000000000000000000000000000000000000000000000000000000000000AAA       QNDkDVwYopyG ZbSZJqQS bKB:                              Oranges Bananas                       Snyder 7925                                            12 
08030016549002174006759000638000000000000000000000000000000000000000000000000000000000000000000000000AAA       QNDkDVwYopyG ZbSZJqQS bKB:                              Apples A. Pears                       Harrison 0217                                          64 
08030015809006805007062000949000000000000000000000000000000000000000000000000000000000000000000000000AAA       QNDkDVwYopyG ZbSZJqQS bKB:                              Apples A. Pears                       New Kent 3709                                          25 
08030063215007598007528000329000000000000000000000000000000000000000000000000000000000000000000000000BBB       QNDkDVwYopyG ZbSZJqQS bKB:                              Oranges Bananas                       Candler                                                68 
08030005521000903002324000804000000000000000000000000000000000000000000000000000000000000000000000000BBB       QNDkDVwYopyG ZbSZJqQS bKB:                              Oranges Bananas                       Jones 2553                                             22 
08030003457004002003777000585000000000000000000000000000000000000000000000000000000000000000000000000AAA       QNDkDVwYopyG ZbSZJqQS bKB:                              Oranges Bananas                       Aiken 5597                                             06 
08030039688006008007407000020000000000000000000000000000000000000000000000000000000000000000000000000AAA       QNDkDVwYopyG ZbSZJqQS bKB:                              Apples A. Pears                       Scotts Bluff 5597                                      55 
08030078693004736009905000872000000000000000000000000000000000000000000000000000000000000000000000000AAA       QNDkDVwYopyG ZbSZJqQS bKB:                              Oranges Bananas                       Bureau 7568                                            16 
08030031801004291005633000948000000000000000000000000000000000000000000000000000000000000000000000000AAA       QNDkDVwYopyG ZbSZJqQS bKB:                              Oranges Bananas                       Pacific 9498                                           32 
08030000343000950008915000710000000000000000000000000000000000000000000000000000000000000000000000000AAA       QNDkDVwYopyG ZbSZJqQS bKB:                              Apples A. Pears                       Colusa 1523                                            71 
08030014030000801001030000985000000000000000000000000000000000000000000000000000000000000000000000000AAA       QNDkDVwYopyG ZbSZJqQS bKB:                              Apples A. Pears                       Columbia 6541                                          21 
08030097193008367005058000186000000000000000000000000000000000000000000000000000000000000000000000000AAA       QNDkDVwYopyG ZbSZJqQS bKB:                              Apples A. Pears                       Marengo 4815                                           92 
08030074897006049001925000285000000000000000000000000000000000000000000000000000000000000000000000000BBB       QNDkDVwYopyG ZbSZJqQS bKB:                              Apples A. Pears                       Saline                                                 23 
08030080142003778000827000171000000000000000000000000000000000000000000000000000000000000000000000000AAA       QNDkDVwYopyG ZbSZJqQS bKB:                              Apples A. Pears                       Boulder                                                57 
08030079441009272004075000616000000000000000000000000000000000000000000000000000000000000000000000000AAA       QNDkDVwYopyG ZbSZJqQS bKB:                              Oranges Bananas                       Lauderdale 8291                                        96 
08030030384004739003588000002000000000000000000000000000000000000000000000000000000000000000000000000BBB       QNDkDVwYopyG ZbSZJqQS bKB:                              Apples A. Pears                       DeKalb                                                 88 
08030060210001409005411000120000000000000000000000000000000000000000000000000000000000000000000000000BBB       QNDkDVwYopyG ZbSZJqQS bKB:                              Apples A. Pears                       Cass 6446                                              20 
08030055431004241005388000592000000000000000000000000000000000000000000000000000000000000000000000000BBB       QNDkDVwYopyG ZbSZJqQS bKB:                              Oranges Bananas                       Hyde 4438                                              21 
08030038749004531000078000893000000000000000000000000000000000000000000000000000000000000000000000000BBB       QNDkDVwYopyG ZbSZJqQS bKB:                              Apples A. Pears                       Burke 8562                                             29 
08030019932001028009940000515000000000000000000000000000000000000000000000000000000000000000000000000AAA       QNDkDVwYopyG ZbSZJqQS bKB:                              Oranges Bananas                       Stokes                                                 95 
08030061590001762005210000657000000000000000000000000000000000000000000000000000000000000000000000000BBB       QNDkDVwYopyG ZbSZJqQS bKB:                              Oranges Bananas                       Wood 0033                                              73 
08030022300004606001271000224000000000000000000000000000000000000000000000000000000000000000000000000BBB       QNDkDVwYopyG ZbSZJqQS bKB:                              Apples A. Pears                       Hood River 2954                                        69 
08030004674004492001160000405000000000000000000000000000000000000000000000000000000000000000000000000BBB       QNDkDVwYopyG ZbSZJqQS bKB:                              Oranges Bananas                       Dallas 8384                                            68 
08030003567006025005378000310000000000000000000000000000000000000000000000000000000000000000000000000BBB       QNDkDVwYopyG ZbSZJqQS bKB:                              Apples A. Pears                       Poweshiek 5600                                         54 
08030052897005896004934000808000000000000000000000000000000000000000000000000000000000000000000000000BBB       QNDkDVwYopyG ZbSZJqQS bKB:                              Apples A. Pears                       Clearwater 4124                                        64 
08030078661005626004924000243000000000000000000000000000000000000000000000000000000000000000000000000BBB       QNDkDVwYopyG ZbSZJqQS bKB:                              Apples A. Pears                       Lyon 1323                                              08 
08030087639004178003191000811000000000000000000000000000000000000000000000000000000000000000000000000AAA       QNDkDVwYopyG ZbSZJqQS bKB:                              Apples A. Pears                       Iowa                                                   34 
08030061897002385008497000639000000000000000000000000000000000000000000000000000000000000000000000000BBB       QNDkDVwYopyG ZbSZJqQS bKB:                              Apples A. Pears                       Jefferson 2760                                         68 
08030058573002675001069000333000000000000000000000000000000000000000000000000000000000000000000000000AAA       QNDkDVwYopyG ZbSZJqQS bKB:                              Oranges Bananas                       Crawford 0558                                          78 
08030081365005262006650000549000000000000000000000000000000000000000000000000000000000000000000000000BBB       QNDkDVwYopyG ZbSZJqQS bKB:                              Apples A. Pears                       Wadena 2476                                            68 
08030080154007948003031000717000000000000000000000000000000000000000000000000000000000000000000000000BBB       QNDkDVwYopyG ZbSZJqQS bKB:                              Oranges Bananas                       Mason 7734                                             49 
08030089988004815001126000903000000000000000000000000000000000000000000000000000000000000000000000000AAA       QNDkDVwYopyG ZbSZJqQS bKB:                              Oranges Bananas                       Newberry 8971                                          47 
08030024193009594001569000924000000000000000000000000000000000000000000000000000000000000000000000000BBB       QNDkDVwYopyG ZbSZJqQS bKB:                              Apples A. Pears                       Tuolumne 8127                                          23 
08030000179000919001974000197000000000000000000000000000000000000000000000000000000000000000000000000BBB       QNDkDVwYopyG ZbSZJqQS bKB:                              Oranges Bananas                       Wright 2111                                            68 
08030050767002930007780000155000000000000000000000000000000000000000000000000000000000000000000000000AAA       QNDkDVwYopyG ZbSZJqQS bKB:                              Oranges Bananas                       George 5794                                            05 
08030079584000593002011000669000000000000000000000000000000000000000000000000000000000000000000000000BBB       QNDkDVwYopyG ZbSZJqQS bKB:                              Apples A. Pears                       York 4916                                              33 
08030059722003501008305000614000000000000000000000000000000000000000000000000000000000000000000000000BBB       QNDkDVwYopyG ZbSZJqQS bKB:                              Oranges Bananas                       Scott 9089                                             61 
08030045676002335007980000679000000000000000000000000000000000000000000000000000000000000000000000000BBB       QNDkDVwYopyG ZbSZJqQS bKB:                              Apples A. Pears                       Nodaway                                                84 
08030095880006427004652000533000000000000000000000000000000000000000000000000000000000000000000000000BBB       QNDkDVwYopyG ZbSZJqQS bKB:                              Apples A. Pears                       Cherokee 8880                                          51 
08030033647002814005383000605000000000000000000000000000000000000000000000000000000000000000000000000AAA       QNDkDVwYopyG ZbSZJqQS bKB:                              Oranges Bananas                       Rice 0714                                              59 
08030079001002948002796000197000000000000000000000000000000000000000000000000000000000000000000000000AAA       QNDkDVwYopyG ZbSZJqQS bKB:                              Apples A. Pears                       Isle of Wight 9635                                     80 
08030029236009444002706000677000000000000000000000000000000000000000000000000000000000000000000000000BBB       QNDkDVwYopyG ZbSZJqQS bKB:                              Apples A. Pears                       McCracken 2134                                         04 
08030003764009299004377000421000000000000000000000000000000000000000000000000000000000000000000000000BBB       QNDkDVwYopyG ZbSZJqQS bKB:                              Apples A. Pears                       Quitman 2537                                           78 
08030060928009415001674000879000000000000000000000000000000000000000000000000000000000000000000000000AAA       QNDkDVwYopyG ZbSZJqQS bKB:                              Oranges Bananas                       Sumter 8497                                            08 
08030001261003294000880000161000000000000000000000000000000000000000000000000000000000000000000000000BBB       QNDkDVwYopyG ZbSZJqQS bKB:                              Oranges Bananas                       Marion 1838                                            75 
08030015218005038009605000843000000000000000000000000000000000000000000000000000000000000000000000000AAA       QNDkDVwYopyG ZbSZJqQS bKB:                              Apples A. Pears                       Ray 1384                                               56 
08030004335007798007940000233000000000000000000000000000000000000000000000000000000000000000000000000BBB       QNDkDVwYopyG ZbSZJqQS bKB:                              Apples A. Pears                       Fluvanna 1897                                          05 
08030039349003336002581000459000000000000000000000000000000000000000000000000000000000000000000000000AAA       QNDkDVwYopyG ZbSZJqQS bKB:                              Apples A. Pears                       Breathitt 2030                                         71 
08030034387002693004468000067000000000000000000000000000000000000000000000000000000000000000000000000AAA       QNDkDVwYopyG ZbSZJqQS bKB:                              Apples A. Pears                       Bourbon 3577                                           15 
08030063086001029006098000650000000000000000000000000000000000000000000000000000000000000000000000000AAA       QNDkDVwYopyG ZbSZJqQS bKB:                              Apples A. Pears                       Ware 6173                                              80 
08030008090001203005960000486000000000000000000000000000000000000000000000000000000000000000000000000AAA       QNDkDVwYopyG ZbSZJqQS bKB:                              Oranges Bananas                       Fayette 5349                                           31 
08030069123009105000963000463000000000000000000000000000000000000000000000000000000000000000000000000BBB       QNDkDVwYopyG ZbSZJqQS bKB:                              Oranges Bananas                       Champaign                                              94 
08030061372007517001444000730000000000000000000000000000000000000000000000000000000000000000000000000BBB       QNDkDVwYopyG ZbSZJqQS bKB:                              Apples A. Pears                       Clearwater 3261                                        97 
08030065450006626003784000882000000000000000000000000000000000000000000000000000000000000000000000000AAA       QNDkDVwYopyG ZbSZJqQS bKB:                              Oranges Bananas                       Lyon 4898                                              07 
08030070107008416008481000138000000000000000000000000000000000000000000000000000000000000000000000000AAA       QNDkDVwYopyG ZbSZJqQS bKB:                              Oranges Bananas                       Siskiyou 2322                                          44 
08030006526008462006063000751000000000000000000000000000000000000000000000000000000000000000000000000AAA       QNDkDVwYopyG ZbSZJqQS bKB:                              Apples A. Pears                       San Jacinto 8714                                       66 
08030087843000003001127000763000000000000000000000000000000000000000000000000000000000000000000000000AAA       QNDkDVwYopyG ZbSZJqQS bKB:                              Apples A. Pears                       Dutchess                                               51 
08030073548008022008748000523000000000000000000000000000000000000000000000000000000000000000000000000BBB       QNDkDVwYopyG ZbSZJqQS bKB:                              Oranges Bananas                       Galax, City of 4194                                    51 
08030012072006704006150000998000000000000000000000000000000000000000000000000000000000000000000000000AAA       QNDkDVwYopyG ZbSZJqQS bKB:                              Oranges Bananas                       Wheeler 7028                                           23 
08030084532009098009128000280000000000000000000000000000000000000000000000000000000000000000000000000AAA       QNDkDVwYopyG ZbSZJqQS bKB:                              Oranges Bananas                       Ingham 1609                                            42 
08030059434003100008218000900000000000000000000000000000000000000000000000000000000000000000000000000AAA       QNDkDVwYopyG ZbSZJqQS bKB:                              Apples A. Pears                       Polk 6932                                              93 
08030038325008484007840000895000000000000000000000000000000000000000000000000000000000000000000000000AAA       QNDkDVwYopyG ZbSZJqQS bKB:                              Apples A. Pears                       Pearl River 5719                                       17 
08030035014008625000605000253000000000000000000000000000000000000000000000000000000000000000000000000AAA       QNDkDVwYopyG ZbSZJqQS bKB:                              Apples A. Pears                       Freestone 9915                                         81 
08030025056006496006921000600000000000000000000000000000000000000000000000000000000000000000000000000AAA       QNDkDVwYopyG ZbSZJqQS bKB:                              Apples A. Pears                       Guilford 4759                                          92 
08030051989005999000387000567000000000000000000000000000000000000000000000000000000000000000000000000AAA       QNDkDVwYopyG ZbSZJqQS bKB:                              Apples A. Pears                       Montrose 1166                                          51 
08030013067002356000267000017000000000000000000000000000000000000000000000000000000000000000000000000AAA       QNDkDVwYopyG ZbSZJqQS bKB:                              Apples A. Pears                       Cedar 3397                                             16 
08030008229008869006151000102000000000000000000000000000000000000000000000000000000000000000000000000AAA       QNDkDVwYopyG ZbSZJqQS bKB:                              Apples A. Pears                       Brazoria 4525                                          64 
08030097791007488009782000579000000000000000000000000000000000000000000000000000000000000000000000000BBB       QNDkDVwYopyG ZbSZJqQS bKB:                              Apples A. Pears                       Belmont                                                36 
08030031864007041003629000134000000000000000000000000000000000000000000000000000000000000000000000000AAA       QNDkDVwYopyG ZbSZJqQS bKB:                              Oranges Bananas                       Richmond 7364                                          53 
08030063784001508008409000368000000000000000000000000000000000000000000000000000000000000000000000000AAA       QNDkDVwYopyG ZbSZJqQS bKB:                              Oranges Bananas                       Randolph 5463                                          97 
08030035992006885008886000369000000000000000000000000000000000000000000000000000000000000000000000000AAA       QNDkDVwYopyG ZbSZJqQS bKB:                              Apples A. Pears                       Panola 4147                                            82 
08030083201007728005735000829000000000000000000000000000000000000000000000000000000000000000000000000AAA       QNDkDVwYopyG ZbSZJqQS bKB:                              Apples A. Pears                       Roane 6136                                             93 
08030007447005026007786000302000000000000000000000000000000000000000000000000000000000000000000000000BBB       QNDkDVwYopyG ZbSZJqQS bKB:                              Apples A. Pears                       Defiance 5367                                          42 
08030070648003210003598000028000000000000000000000000000000000000000000000000000000000000000000000000AAA       QNDkDVwYopyG ZbSZJqQS bKB:                              Apples A. Pears                       Hitchcock 4689                                         75 
08030020801008560002031000923000000000000000000000000000000000000000000000000000000000000000000000000BBB       QNDkDVwYopyG ZbSZJqQS bKB:                              Oranges Bananas                       St. Joseph 8329                                        63 
08030050685006894005705000671000000000000000000000000000000000000000000000000000000000000000000000000AAA       QNDkDVwYopyG ZbSZJqQS bKB:                              Oranges Bananas                       Sumter 5971                                            25 
08030015821001006001740000295000000000000000000000000000000000000000000000000000000000000000000000000AAA       QNDkDVwYopyG ZbSZJqQS bKB:                              Oranges Bananas                       Mills 0950                                             14 
08030056143003787004936000751000000000000000000000000000000000000000000000000000000000000000000000000BBB       QNDkDVwYopyG ZbSZJqQS bKB:                              Oranges Bananas                       Edwards 7697                                           74 
08030058600006590002074000087000000000000000000000000000000000000000000000000000000000000000000000000BBB       QNDkDVwYopyG ZbSZJqQS bKB:                              Apples A. Pears                       Houston 4652                                           25 
08030084466002388008292000502000000000000000000000000000000000000000000000000000000000000000000000000BBB       QNDkDVwYopyG ZbSZJqQS bKB:                              Apples A. Pears                       San Mateo                                              41 
08030076353009474009057000311000000000000000000000000000000000000000000000000000000000000000000000000BBB       QNDkDVwYopyG ZbSZJqQS bKB:                              Apples A. Pears                       Keith 8581                                             88 
08030071589003899007484000452000000000000000000000000000000000000000000000000000000000000000000000000AAA       QNDkDVwYopyG ZbSZJqQS bKB:                              Apples A. Pears                       Wyoming 3011                                           67 
08030077621006034002644000129000000000000000000000000000000000000000000000000000000000000000000000000AAA       QNDkDVwYopyG ZbSZJqQS bKB:                              Apples A. Pears                       Waseca 0363                                            23 
08030074686000211002684000282000000000000000000000000000000000000000000000000000000000000000000000000AAA       QNDkDVwYopyG ZbSZJqQS bKB:                              Apples A. Pears                       Dougherty 5025                                         31 
08030072583006595008738000082000000000000000000000000000000000000000000000000000000000000000000000000AAA       QNDkDVwYopyG ZbSZJqQS bKB:                              Apples A. Pears                       Crawford 5537                                          23 
08030085517001487008476000860000000000000000000000000000000000000000000000000000000000000000000000000BBB       QNDkDVwYopyG ZbSZJqQS bKB:                              Apples A. Pears                       Sandoval 7191                                          49 
08030079554002102006676000055000000000000000000000000000000000000000000000000000000000000000000000000BBB       QNDkDVwYopyG ZbSZJqQS bKB:                              Oranges Bananas                       Twiggs 2721                                            75 
08030083166005073008337000676000000000000000000000000000000000000000000000000000000000000000000000000BBB       QNDkDVwYopyG ZbSZJqQS bKB:                              Oranges Bananas                       Beaufort 5055                                          72 
08030078325005184000019000817000000000000000000000000000000000000000000000000000000000000000000000000AAA       QNDkDVwYopyG ZbSZJqQS bKB:                              Oranges Bananas                       Rutherford 7461                                        86 
08030081117008954000824000829000000000000000000000000000000000000000000000000000000000000000000000000AAA       QNDkDVwYopyG ZbSZJqQS bKB:                              Oranges Bananas                       Baxter 4352                                            42 
08030009536005029009318000625000000000000000000000000000000000000000000000000000000000000000000000000BBB       QNDkDVwYopyG ZbSZJqQS bKB:                              Oranges Bananas                       Sac 7369                                               51 
08030077653007454005688000907000000000000000000000000000000000000000000000000000000000000000000000000AAA       QNDkDVwYopyG ZbSZJqQS bKB:                              Apples A. Pears                       Jefferson Davis 9604                                   92 
08030022679009513008711000708000000000000000000000000000000000000000000000000000000000000000000000000AAA       QNDkDVwYopyG ZbSZJqQS bKB:                              Apples A. Pears                       Mercer 3291                                            68 
08030089497001228009984000931000000000000000000000000000000000000000000000000000000000000000000000000BBB       QNDkDVwYopyG ZbSZJqQS bKB:                              Oranges Bananas                       Aransas                                                48 
08030036528004772006243000839000000000000000000000000000000000000000000000000000000000000000000000000BBB       QNDkDVwYopyG ZbSZJqQS bKB:                              Apples A. Pears                       Johnson 8762                                           50 
08030099084005616000431000168000000000000000000000000000000000000000000000000000000000000000000000000BBB       QNDkDVwYopyG ZbSZJqQS bKB:                              Oranges Bananas                       Lyon 2901                                              50 
08030087668007736004072000134000000000000000000000000000000000000000000000000000000000000000000000000BBB       QNDkDVwYopyG ZbSZJqQS bKB:                              Apples A. Pears                       Pickaway                                               07 
08030037477000730005283000753000000000000000000000000000000000000000000000000000000000000000000000000AAA       QNDkDVwYopyG ZbSZJqQS bKB:                              Apples A. Pears                       Willacy                                                53 
08030087539004386009202000065000000000000000000000000000000000000000000000000000000000000000000000000BBB       QNDkDVwYopyG ZbSZJqQS bKB:                              Oranges Bananas                       Augusta 1618                                           73 
08030088832001895003351000414000000000000000000000000000000000000000000000000000000000000000000000000AAA       QNDkDVwYopyG ZbSZJqQS bKB:                              Apples A. Pears                       Carroll 6138                                           43 
08030069216009080009812000702000000000000000000000000000000000000000000000000000000000000000000000000AAA       QNDkDVwYopyG ZbSZJqQS bKB:                              Apples A. Pears                       Wolfe 1674                                             71 
08030026036004261002814000236000000000000000000000000000000000000000000000000000000000000000000000000BBB       QNDkDVwYopyG ZbSZJqQS bKB:                              Oranges Bananas                       Shelby 8130                                            00 
08030075322008648004574000411000000000000000000000000000000000000000000000000000000000000000000000000AAA       QNDkDVwYopyG ZbSZJqQS bKB:                              Apples A. Pears                       Logan 0837                                             48 
08030088964002858006956000971000000000000000000000000000000000000000000000000000000000000000000000000AAA       QNDkDVwYopyG ZbSZJqQS bKB:                              Apples A. Pears                       Seminole 9009                                          63 
08030055944007504009225000626000000000000000000000000000000000000000000000000000000000000000000000000AAA       QNDkDVwYopyG ZbSZJqQS bKB:                              Apples A. Pears                       Newberry 4931                                          70 
08030099555005936004183000764000000000000000000000000000000000000000000000000000000000000000000000000AAA       QNDkDVwYopyG ZbSZJqQS bKB:                              Oranges Bananas                       Randolph 6642                                          57 
08030000120005053007606000998000000000000000000000000000000000000000000000000000000000000000000000000BBB       QNDkDVwYopyG ZbSZJqQS bKB:                              Apples A. Pears                       Hart                                                   81 
08030051563009029001263000878000000000000000000000000000000000000000000000000000000000000000000000000AAA       QNDkDVwYopyG ZbSZJqQS bKB:                              Apples A. Pears                       Lewis and Clark 8537                                   38 
08030025601009789004246000315000000000000000000000000000000000000000000000000000000000000000000000000AAA       QNDkDVwYopyG ZbSZJqQS bKB:                              Apples A. Pears                       Goochland 4994                                         69 
08030039355002045002431000881000000000000000000000000000000000000000000000000000000000000000000000000BBB       QNDkDVwYopyG ZbSZJqQS bKB:                              Apples A. Pears                       Marshall 9029                                          99 
08030016073007591006943000794000000000000000000000000000000000000000000000000000000000000000000000000AAA       QNDkDVwYopyG ZbSZJqQS bKB:                              Apples A. Pears                       Shelby 0264                                            50 
08030002353001391006033000903000000000000000000000000000000000000000000000000000000000000000000000000AAA       QNDkDVwYopyG ZbSZJqQS bKB:                              Oranges Bananas                       Allegan 2168                                           68 
08030067182004882003013000920000000000000000000000000000000000000000000000000000000000000000000000000BBB       QNDkDVwYopyG ZbSZJqQS bKB:                              Apples A. Pears                       Crisp 5267                                             65 
08030092844004335001080000204000000000000000000000000000000000000000000000000000000000000000000000000BBB       QNDkDVwYopyG ZbSZJqQS bKB:                              Apples A. Pears                       Crawford 0712                                          79 
08030028248003804005796000959000000000000000000000000000000000000000000000000000000000000000000000000BBB       QNDkDVwYopyG ZbSZJqQS bKB:                              Oranges Bananas                       Henderson 9042                                         37 
08030011326003168005073000907000000000000000000000000000000000000000000000000000000000000000000000000AAA       QNDkDVwYopyG ZbSZJqQS bKB:                              Apples A. Pears                       Fulton                                                 93 
08030088318001059000832000432000000000000000000000000000000000000000000000000000000000000000000000000BBB       QNDkDVwYopyG ZbSZJqQS bKB:                              Apples A. Pears                       Jackson 5612                                           10 
08030040111009470000875000472000000000000000000000000000000000000000000000000000000000000000000000000BBB       QNDkDVwYopyG ZbSZJqQS bKB:                              Apples A. Pears                       Boone 4896                                             51 
08030036960009199007139000518000000000000000000000000000000000000000000000000000000000000000000000000AAA       QNDkDVwYopyG ZbSZJqQS bKB:                              Apples A. Pears                       Shelby 5486                                            08 
08030053143002430001662000833000000000000000000000000000000000000000000000000000000000000000000000000AAA       QNDkDVwYopyG ZbSZJqQS bKB:                              Oranges Bananas                       Trigg 7692                                             30 
08030015838002366006970000878000000000000000000000000000000000000000000000000000000000000000000000000AAA       QNDkDVwYopyG ZbSZJqQS bKB:                              Oranges Bananas                       Pleasants 8625                                         59 
08030055409004253002705000668000000000000000000000000000000000000000000000000000000000000000000000000BBB       QNDkDVwYopyG ZbSZJqQS bKB:                              Oranges Bananas                       Martin 8823                                            08 
08030061137003001008756000254000000000000000000000000000000000000000000000000000000000000000000000000BBB       QNDkDVwYopyG ZbSZJqQS bKB:                              Apples A. Pears                       Broome 4400                                            06 
08030066763003810004216000573000000000000000000000000000000000000000000000000000000000000000000000000BBB       QNDkDVwYopyG ZbSZJqQS bKB:                              Oranges Bananas                       Owen 5287                                              26 
08030077272003450000124000349000000000000000000000000000000000000000000000000000000000000000000000000AAA       QNDkDVwYopyG ZbSZJqQS bKB:                              Oranges Bananas                       Mitchell 4115                                          32 
08030015860001431005821000129000000000000000000000000000000000000000000000000000000000000000000000000BBB       QNDkDVwYopyG ZbSZJqQS bKB:                              Apples A. Pears                       Spokane 5602                                           35 
